{
  "contractName": "Transaction",
  "abi": [
    {
      "anonymous": false,
      "inputs": [
        {
          "indexed": false,
          "internalType": "string",
          "name": "category",
          "type": "string"
        },
        {
          "indexed": false,
          "internalType": "string",
          "name": "name",
          "type": "string"
        },
        {
          "indexed": false,
          "internalType": "uint256",
          "name": "time",
          "type": "uint256"
        },
        {
          "indexed": false,
          "internalType": "string",
          "name": "ipfs_hash",
          "type": "string"
        },
        {
          "indexed": false,
          "internalType": "string",
          "name": "registrant",
          "type": "string"
        },
        {
          "indexed": false,
          "internalType": "string",
          "name": "responsible_manager",
          "type": "string"
        },
        {
          "indexed": false,
          "internalType": "string",
          "name": "file_type",
          "type": "string"
        },
        {
          "indexed": false,
          "internalType": "string",
          "name": "file_description",
          "type": "string"
        }
      ],
      "name": "cctvTransaction",
      "type": "event"
    },
    {
      "anonymous": false,
      "inputs": [
        {
          "indexed": false,
          "internalType": "string",
          "name": "category",
          "type": "string"
        },
        {
          "indexed": false,
          "internalType": "string",
          "name": "name",
          "type": "string"
        },
        {
          "indexed": false,
          "internalType": "uint256",
          "name": "time",
          "type": "uint256"
        },
        {
          "indexed": false,
          "internalType": "string",
          "name": "ipfs_hash",
          "type": "string"
        },
        {
          "indexed": false,
          "internalType": "string",
          "name": "registrant",
          "type": "string"
        },
        {
          "indexed": false,
          "internalType": "string",
          "name": "responsible_manager",
          "type": "string"
        },
        {
          "indexed": false,
          "internalType": "string",
          "name": "file_type",
          "type": "string"
        },
        {
          "indexed": false,
          "internalType": "string",
          "name": "file_description",
          "type": "string"
        }
      ],
      "name": "checkTransaction",
      "type": "event"
    },
    {
      "anonymous": false,
      "inputs": [
        {
          "indexed": false,
          "internalType": "string",
          "name": "category",
          "type": "string"
        },
        {
          "indexed": false,
          "internalType": "string",
          "name": "name",
          "type": "string"
        },
        {
          "indexed": false,
          "internalType": "uint256",
          "name": "time",
          "type": "uint256"
        },
        {
          "indexed": false,
          "internalType": "string",
          "name": "ipfs_hash",
          "type": "string"
        },
        {
          "indexed": false,
          "internalType": "string",
          "name": "registrant",
          "type": "string"
        },
        {
          "indexed": false,
          "internalType": "string",
          "name": "responsible_manager",
          "type": "string"
        },
        {
          "indexed": false,
          "internalType": "string",
          "name": "file_type",
          "type": "string"
        },
        {
          "indexed": false,
          "internalType": "string",
          "name": "file_description",
          "type": "string"
        }
      ],
      "name": "documentTransaction",
      "type": "event"
    },
    {
      "anonymous": false,
      "inputs": [
        {
          "indexed": false,
          "internalType": "string",
          "name": "category",
          "type": "string"
        },
        {
          "indexed": false,
          "internalType": "string",
          "name": "name",
          "type": "string"
        },
        {
          "indexed": false,
          "internalType": "uint256",
          "name": "time",
          "type": "uint256"
        },
        {
          "indexed": false,
          "internalType": "string",
          "name": "ipfs_hash",
          "type": "string"
        },
        {
          "indexed": false,
          "internalType": "string",
          "name": "registrant",
          "type": "string"
        },
        {
          "indexed": false,
          "internalType": "string",
          "name": "responsible_manager",
          "type": "string"
        },
        {
          "indexed": false,
          "internalType": "string",
          "name": "file_type",
          "type": "string"
        },
        {
          "indexed": false,
          "internalType": "string",
          "name": "file_description",
          "type": "string"
        }
      ],
      "name": "handleTransaction",
      "type": "event"
    },
    {
      "anonymous": false,
      "inputs": [
        {
          "indexed": false,
          "internalType": "string",
          "name": "category",
          "type": "string"
        },
        {
          "indexed": false,
          "internalType": "string",
          "name": "name",
          "type": "string"
        },
        {
          "indexed": false,
          "internalType": "uint256",
          "name": "time",
          "type": "uint256"
        },
        {
          "indexed": false,
          "internalType": "string",
          "name": "ipfs_hash",
          "type": "string"
        },
        {
          "indexed": false,
          "internalType": "string",
          "name": "registrant",
          "type": "string"
        },
        {
          "indexed": false,
          "internalType": "string",
          "name": "responsible_manager",
          "type": "string"
        },
        {
          "indexed": false,
          "internalType": "string",
          "name": "file_type",
          "type": "string"
        },
        {
          "indexed": false,
          "internalType": "string",
          "name": "file_description",
          "type": "string"
        }
      ],
      "name": "pressureTransaction",
      "type": "event"
    },
    {
      "anonymous": false,
      "inputs": [
        {
          "indexed": false,
          "internalType": "string",
          "name": "category",
          "type": "string"
        },
        {
          "indexed": false,
          "internalType": "string",
          "name": "name",
          "type": "string"
        },
        {
          "indexed": false,
          "internalType": "uint256",
          "name": "time",
          "type": "uint256"
        },
        {
          "indexed": false,
          "internalType": "string",
          "name": "ipfs_hash",
          "type": "string"
        },
        {
          "indexed": false,
          "internalType": "string",
          "name": "registrant",
          "type": "string"
        },
        {
          "indexed": false,
          "internalType": "string",
          "name": "responsible_manager",
          "type": "string"
        },
        {
          "indexed": false,
          "internalType": "string",
          "name": "file_type",
          "type": "string"
        },
        {
          "indexed": false,
          "internalType": "string",
          "name": "file_description",
          "type": "string"
        }
      ],
      "name": "rayTransaction",
      "type": "event"
    },
    {
      "anonymous": false,
      "inputs": [
        {
          "indexed": false,
          "internalType": "string",
          "name": "category",
          "type": "string"
        },
        {
          "indexed": false,
          "internalType": "string",
          "name": "name",
          "type": "string"
        },
        {
          "indexed": false,
          "internalType": "uint256",
          "name": "time",
          "type": "uint256"
        },
        {
          "indexed": false,
          "internalType": "string",
          "name": "ipfs_hash",
          "type": "string"
        },
        {
          "indexed": false,
          "internalType": "string",
          "name": "registrant",
          "type": "string"
        },
        {
          "indexed": false,
          "internalType": "string",
          "name": "responsible_manager",
          "type": "string"
        },
        {
          "indexed": false,
          "internalType": "string",
          "name": "file_type",
          "type": "string"
        },
        {
          "indexed": false,
          "internalType": "string",
          "name": "file_description",
          "type": "string"
        }
      ],
      "name": "tempTransaction",
      "type": "event"
    },
    {
      "inputs": [
        {
          "internalType": "string",
          "name": "category",
          "type": "string"
        },
        {
          "internalType": "string",
          "name": "name",
          "type": "string"
        },
        {
          "internalType": "string",
          "name": "ipfs_hash",
          "type": "string"
        },
        {
          "internalType": "string",
          "name": "registrant",
          "type": "string"
        },
        {
          "internalType": "string",
          "name": "responsible_manager",
          "type": "string"
        },
        {
          "internalType": "string",
          "name": "file_type",
          "type": "string"
        },
        {
          "internalType": "string",
          "name": "file_description",
          "type": "string"
        }
      ],
      "name": "sendTrans",
      "outputs": [],
      "stateMutability": "payable",
      "type": "function",
      "payable": true
    },
    {
      "inputs": [],
      "name": "getAllTransactions",
      "outputs": [
        {
          "components": [
            {
              "internalType": "string",
              "name": "category",
              "type": "string"
            },
            {
              "internalType": "string",
              "name": "name",
              "type": "string"
            },
            {
              "internalType": "uint256",
              "name": "timestamp",
              "type": "uint256"
            },
            {
              "internalType": "string",
              "name": "ipfs_hash",
              "type": "string"
            },
            {
              "internalType": "string",
              "name": "registrant",
              "type": "string"
            },
            {
              "internalType": "string",
              "name": "responsible_manager",
              "type": "string"
            },
            {
              "internalType": "string",
              "name": "file_type",
              "type": "string"
            },
            {
              "internalType": "string",
              "name": "file_description",
              "type": "string"
            }
          ],
          "internalType": "struct Transaction.transaction",
          "name": "",
          "type": "tuple"
        }
      ],
      "stateMutability": "view",
      "type": "function",
      "constant": true
    },
    {
      "inputs": [],
      "name": "cntTransactions",
      "outputs": [
        {
          "internalType": "uint16",
          "name": "",
          "type": "uint16"
        }
      ],
      "stateMutability": "view",
      "type": "function",
      "constant": true
    }
  ],
  "bytecode": "0x608060405234801561001057600080fd5b50611512806100206000396000f3fe6080604052600436106100345760003560e01c806327506f5314610039578063998e19aa14610064578063daec9ea31461008f575b600080fd5b34801561004557600080fd5b5061004e6100ab565b60405161005b9190610d79565b60405180910390f35b34801561007057600080fd5b5061007961050a565b6040516100869190610db8565b60405180910390f35b6100a960048036038101906100a49190610f1c565b61055f565b005b6100b3610b05565b6000803373ffffffffffffffffffffffffffffffffffffffff1673ffffffffffffffffffffffffffffffffffffffff1681526020019081526020016000206040518061010001604052908160008201805461010d906110b1565b80601f0160208091040260200160405190810160405280929190818152602001828054610139906110b1565b80156101865780601f1061015b57610100808354040283529160200191610186565b820191906000526020600020905b81548152906001019060200180831161016957829003601f168201915b5050505050815260200160018201805461019f906110b1565b80601f01602080910402602001604051908101604052809291908181526020018280546101cb906110b1565b80156102185780601f106101ed57610100808354040283529160200191610218565b820191906000526020600020905b8154815290600101906020018083116101fb57829003601f168201915b505050505081526020016002820154815260200160038201805461023b906110b1565b80601f0160208091040260200160405190810160405280929190818152602001828054610267906110b1565b80156102b45780601f10610289576101008083540402835291602001916102b4565b820191906000526020600020905b81548152906001019060200180831161029757829003601f168201915b505050505081526020016004820180546102cd906110b1565b80601f01602080910402602001604051908101604052809291908181526020018280546102f9906110b1565b80156103465780601f1061031b57610100808354040283529160200191610346565b820191906000526020600020905b81548152906001019060200180831161032957829003601f168201915b5050505050815260200160058201805461035f906110b1565b80601f016020809104026020016040519081016040528092919081815260200182805461038b906110b1565b80156103d85780601f106103ad576101008083540402835291602001916103d8565b820191906000526020600020905b8154815290600101906020018083116103bb57829003601f168201915b505050505081526020016006820180546103f1906110b1565b80601f016020809104026020016040519081016040528092919081815260200182805461041d906110b1565b801561046a5780601f1061043f5761010080835404028352916020019161046a565b820191906000526020600020905b81548152906001019060200180831161044d57829003601f168201915b50505050508152602001600782018054610483906110b1565b80601f01602080910402602001604051908101604052809291908181526020018280546104af906110b1565b80156104fc5780601f106104d1576101008083540402835291602001916104fc565b820191906000526020600020905b8154815290600101906020018083116104df57829003601f168201915b505050505081525050905090565b6000600160003373ffffffffffffffffffffffffffffffffffffffff1673ffffffffffffffffffffffffffffffffffffffff16815260200190815260200160002060009054906101000a900461ffff16905090565b6000604051806101000160405280898152602001888152602001428152602001878152602001868152602001858152602001848152602001838152509050600160003373ffffffffffffffffffffffffffffffffffffffff1673ffffffffffffffffffffffffffffffffffffffff168152602001908152602001600020600081819054906101000a900461ffff16809291906105fa90611111565b91906101000a81548161ffff021916908361ffff16021790555050806000803373ffffffffffffffffffffffffffffffffffffffff1673ffffffffffffffffffffffffffffffffffffffff1681526020019081526020016000206000820151816000019080519060200190610670929190610b4a565b50602082015181600101908051906020019061068d929190610b4a565b506040820151816002015560608201518160030190805190602001906106b4929190610b4a565b5060808201518160040190805190602001906106d1929190610b4a565b5060a08201518160050190805190602001906106ee929190610b4a565b5060c082015181600601908051906020019061070b929190610b4a565b5060e0820151816007019080519060200190610728929190610b4a565b509050507f6c7f36df7ee3827c3cdbf70417c8039de964aa5405c0e030201d085224d01f3c8888428989898989604051610769989796959493929190611194565b60405180910390a16040516020016107809061129a565b60405160208183030381529060405280519060200120886040516020016107a791906112e0565b6040516020818303038152906040528051906020012003610808577f1e0b58d75478ed0fc8cb0308e09379dd9b8d44ae9a83e67f736aae2d8e73899688884289898989896040516107ff989796959493929190611194565b60405180910390a15b60405160200161081790611343565b604051602081830303815290604052805190602001208860405160200161083e91906112e0565b604051602081830303815290604052805190602001200361089f577f0e94a20a59cbf30045f97db21acfca05f4f6240a822692eff1c568bcec51977b8888428989898989604051610896989796959493929190611194565b60405180910390a15b6040516020016108ae906113a4565b60405160208183030381529060405280519060200120886040516020016108d591906112e0565b6040516020818303038152906040528051906020012003610936577fd24d02bbf25a572a2c5dfc36cedbdd5d57b6235a39903db2ff7c297d36611cd4888842898989898960405161092d989796959493929190611194565b60405180910390a15b60405160200161094590611405565b604051602081830303815290604052805190602001208860405160200161096c91906112e0565b60405160208183030381529060405280519060200120036109cd577f45b8a52b83815b305dbbb221c8c3a8dafb795bf1045b3c8e3485634abc0a20d488884289898989896040516109c4989796959493929190611194565b60405180910390a15b6040516020016109dc90611466565b6040516020818303038152906040528051906020012088604051602001610a0391906112e0565b6040516020818303038152906040528051906020012003610a64577f6a565fa3584d3bf577d8e4f91c1d045b92c8598a03e16692c58b006eac9dfb308888428989898989604051610a5b989796959493929190611194565b60405180910390a15b604051602001610a73906114c7565b6040516020818303038152906040528051906020012088604051602001610a9a91906112e0565b6040516020818303038152906040528051906020012003610afb577f7263778c6c3316f17e21cbcfae1fb43029859dcfb70a556b3a1c20a15cfcd98b8888428989898989604051610af2989796959493929190611194565b60405180910390a15b5050505050505050565b60405180610100016040528060608152602001606081526020016000815260200160608152602001606081526020016060815260200160608152602001606081525090565b828054610b56906110b1565b90600052602060002090601f016020900481019282610b785760008555610bbf565b82601f10610b9157805160ff1916838001178555610bbf565b82800160010185558215610bbf579182015b82811115610bbe578251825591602001919060010190610ba3565b5b509050610bcc9190610bd0565b5090565b5b80821115610be9576000816000905550600101610bd1565b5090565b600081519050919050565b600082825260208201905092915050565b60005b83811015610c27578082015181840152602081019050610c0c565b83811115610c36576000848401525b50505050565b6000601f19601f8301169050919050565b6000610c5882610bed565b610c628185610bf8565b9350610c72818560208601610c09565b610c7b81610c3c565b840191505092915050565b6000819050919050565b610c9981610c86565b82525050565b6000610100830160008301518482036000860152610cbd8282610c4d565b91505060208301518482036020860152610cd78282610c4d565b9150506040830151610cec6040860182610c90565b5060608301518482036060860152610d048282610c4d565b91505060808301518482036080860152610d1e8282610c4d565b91505060a083015184820360a0860152610d388282610c4d565b91505060c083015184820360c0860152610d528282610c4d565b91505060e083015184820360e0860152610d6c8282610c4d565b9150508091505092915050565b60006020820190508181036000830152610d938184610c9f565b905092915050565b600061ffff82169050919050565b610db281610d9b565b82525050565b6000602082019050610dcd6000830184610da9565b92915050565b6000604051905090565b600080fd5b600080fd5b600080fd5b600080fd5b7f4e487b7100000000000000000000000000000000000000000000000000000000600052604160045260246000fd5b610e2982610c3c565b810181811067ffffffffffffffff82111715610e4857610e47610df1565b5b80604052505050565b6000610e5b610dd3565b9050610e678282610e20565b919050565b600067ffffffffffffffff821115610e8757610e86610df1565b5b610e9082610c3c565b9050602081019050919050565b82818337600083830152505050565b6000610ebf610eba84610e6c565b610e51565b905082815260208101848484011115610edb57610eda610dec565b5b610ee6848285610e9d565b509392505050565b600082601f830112610f0357610f02610de7565b5b8135610f13848260208601610eac565b91505092915050565b600080600080600080600060e0888a031215610f3b57610f3a610ddd565b5b600088013567ffffffffffffffff811115610f5957610f58610de2565b5b610f658a828b01610eee565b975050602088013567ffffffffffffffff811115610f8657610f85610de2565b5b610f928a828b01610eee565b965050604088013567ffffffffffffffff811115610fb357610fb2610de2565b5b610fbf8a828b01610eee565b955050606088013567ffffffffffffffff811115610fe057610fdf610de2565b5b610fec8a828b01610eee565b945050608088013567ffffffffffffffff81111561100d5761100c610de2565b5b6110198a828b01610eee565b93505060a088013567ffffffffffffffff81111561103a57611039610de2565b5b6110468a828b01610eee565b92505060c088013567ffffffffffffffff81111561106757611066610de2565b5b6110738a828b01610eee565b91505092959891949750929550565b7f4e487b7100000000000000000000000000000000000000000000000000000000600052602260045260246000fd5b600060028204905060018216806110c957607f821691505b6020821081036110dc576110db611082565b5b50919050565b7f4e487b7100000000000000000000000000000000000000000000000000000000600052601160045260246000fd5b600061111c82610d9b565b915061ffff82036111305761112f6110e2565b5b600182019050919050565b600082825260208201905092915050565b600061115782610bed565b611161818561113b565b9350611171818560208601610c09565b61117a81610c3c565b840191505092915050565b61118e81610c86565b82525050565b60006101008201905081810360008301526111af818b61114c565b905081810360208301526111c3818a61114c565b90506111d26040830189611185565b81810360608301526111e4818861114c565b905081810360808301526111f8818761114c565b905081810360a083015261120c818661114c565b905081810360c0830152611220818561114c565b905081810360e0830152611234818461114c565b90509998505050505050505050565b600081905092915050565b7f446f63756d656e74000000000000000000000000000000000000000000000000600082015250565b6000611284600883611243565b915061128f8261124e565b600882019050919050565b60006112a582611277565b9150819050919050565b60006112ba82610bed565b6112c48185611243565b93506112d4818560208601610c09565b80840191505092915050565b60006112ec82846112af565b915081905092915050565b7f436865636b4c6973740000000000000000000000000000000000000000000000600082015250565b600061132d600983611243565b9150611338826112f7565b600982019050919050565b600061134e82611320565b9150819050919050565b7f4343545600000000000000000000000000000000000000000000000000000000600082015250565b600061138e600483611243565b915061139982611358565b600482019050919050565b60006113af82611381565b9150819050919050565b7f54656d7000000000000000000000000000000000000000000000000000000000600082015250565b60006113ef600483611243565b91506113fa826113b9565b600482019050919050565b6000611410826113e2565b9150819050919050565b7f5072657373757265000000000000000000000000000000000000000000000000600082015250565b6000611450600883611243565b915061145b8261141a565b600882019050919050565b600061147182611443565b9150819050919050565b7f5261790000000000000000000000000000000000000000000000000000000000600082015250565b60006114b1600383611243565b91506114bc8261147b565b600382019050919050565b60006114d2826114a4565b915081905091905056fea2646970667358221220e7ebcfb9700ea65ee54e9e3de50e60dd38aa0fd2323aec8529d206969bd7ef7e64736f6c634300080e0033",
  "immutableReferences": {},
  "source": "// SPDX-License-Identifier: MIT\r\npragma solidity ^0.8.14;\r\n\r\ncontract Transaction {\r\n    struct transaction {\r\n        string category;\r\n        string name;\r\n        uint256 timestamp;\r\n        string ipfs_hash;\r\n        string registrant;\r\n        string responsible_manager;\r\n        string file_type;\r\n        string file_description;\r\n    }\r\n\r\n    event handleTransaction(string category, string name, uint256 time, string ipfs_hash, string registrant, string responsible_manager, string file_type, string file_description);\r\n    event documentTransaction(string category, string name, uint256 time, string ipfs_hash, string registrant, string responsible_manager, string file_type, string file_description);\r\n    event checkTransaction(string category, string name, uint256 time, string ipfs_hash, string registrant, string responsible_manager, string file_type, string file_description);\r\n    event cctvTransaction(string category, string name, uint256 time, string ipfs_hash, string registrant, string responsible_manager, string file_type, string file_description);\r\n    event tempTransaction(string category, string name, uint256 time, string ipfs_hash, string registrant, string responsible_manager, string file_type, string file_description);\r\n    event pressureTransaction(string category, string name, uint256 time, string ipfs_hash, string registrant, string responsible_manager, string file_type, string file_description);\r\n    event rayTransaction(string category, string name, uint256 time, string ipfs_hash, string registrant, string responsible_manager, string file_type, string file_description);\r\n\r\n    //saves all the transactions of the account\r\n    mapping (address=>transaction) transactionIndex;\r\n    //count the total number of transaction of the account\r\n    mapping (address=>uint16) transaction_cnt;\r\n\r\n    //send the transaction\r\n    function sendTrans(string memory category, string memory name, string memory ipfs_hash, string memory registrant, string memory responsible_manager, string memory file_type, string memory file_description) public payable{\r\n        // cate = \" \" + cate;\r\n        //inserts transaction information\r\n        transaction memory newTransaction = transaction(category, name, block.timestamp, ipfs_hash, registrant, responsible_manager, file_type, file_description);\r\n        //count the number of transactions sent\r\n        transaction_cnt[msg.sender]++;\r\n        //save all the transactions\r\n        transactionIndex[msg.sender] = newTransaction;\r\n\r\n        emit handleTransaction(category, name, block.timestamp, ipfs_hash, registrant, responsible_manager, file_type, file_description);\r\n        if (keccak256(abi.encodePacked(category)) == keccak256(abi.encodePacked('Document')))\r\n            emit documentTransaction(category, name, block.timestamp, ipfs_hash, registrant, responsible_manager, file_type, file_description);\r\n        if (keccak256(abi.encodePacked(category)) == keccak256(abi.encodePacked('CheckList')))\r\n            emit checkTransaction(category, name, block.timestamp, ipfs_hash, registrant, responsible_manager, file_type, file_description);\r\n        if (keccak256(abi.encodePacked(category)) == keccak256(abi.encodePacked('CCTV')))\r\n            emit cctvTransaction(category, name, block.timestamp, ipfs_hash, registrant, responsible_manager, file_type, file_description);\r\n        if (keccak256(abi.encodePacked(category)) == keccak256(abi.encodePacked('Temp')))\r\n            emit tempTransaction(category, name, block.timestamp, ipfs_hash, registrant, responsible_manager, file_type, file_description);\r\n        if (keccak256(abi.encodePacked(category)) == keccak256(abi.encodePacked('Pressure')))\r\n            emit pressureTransaction(category, name, block.timestamp, ipfs_hash, registrant, responsible_manager, file_type, file_description);\r\n        if (keccak256(abi.encodePacked(category)) == keccak256(abi.encodePacked('Ray')))\r\n            emit rayTransaction(category, name, block.timestamp, ipfs_hash, registrant, responsible_manager, file_type, file_description);\r\n    }\r\n \r\n\r\n    //view all the transactions of the user\r\n    function getAllTransactions() view external returns(transaction memory){\r\n        return transactionIndex[msg.sender];\r\n    }\r\n\r\n    function cntTransactions() view external returns(uint16){\r\n        return transaction_cnt[msg.sender];\r\n    }\r\n}",
  "sourcePath": "C:\\Users\\Runner\\Desktop\\test1\\SafetyManagement_UI\\truffle\\contracts\\Transaction.sol",
  "compiler": {
    "name": "solc",
    "version": "0.8.14+commit.80d49f37.Emscripten.clang"
  },
  "schemaVersion": "3.4.4",
  "updatedAt": "2022-09-14T14:34:43.955Z",
  "networkType": "ethereum",
  "devdoc": {
    "kind": "dev",
    "methods": {},
    "version": 1
  },
  "userdoc": {
    "kind": "user",
    "methods": {},
    "version": 1
  }
}