{
  "contractName": "Transaction",
  "abi": [
    {
      "anonymous": false,
      "inputs": [
        {
          "indexed": false,
          "internalType": "string",
          "name": "category",
          "type": "string"
        },
        {
          "indexed": false,
          "internalType": "string",
          "name": "name",
          "type": "string"
        },
        {
          "indexed": false,
          "internalType": "uint256",
          "name": "time",
          "type": "uint256"
        },
        {
          "indexed": false,
          "internalType": "string",
          "name": "ipfs_hash",
          "type": "string"
        },
        {
          "indexed": false,
          "internalType": "string",
          "name": "registrant",
          "type": "string"
        },
        {
          "indexed": false,
          "internalType": "string",
          "name": "responsible_manager",
          "type": "string"
        },
        {
          "indexed": false,
          "internalType": "string",
          "name": "file_type",
          "type": "string"
        },
        {
          "indexed": false,
          "internalType": "string",
          "name": "file_description",
          "type": "string"
        }
      ],
      "name": "handleTransaction",
      "type": "event"
    },
    {
      "inputs": [
        {
          "internalType": "string",
          "name": "category",
          "type": "string"
        },
        {
          "internalType": "string",
          "name": "name",
          "type": "string"
        },
        {
          "internalType": "string",
          "name": "ipfs_hash",
          "type": "string"
        },
        {
          "internalType": "string",
          "name": "registrant",
          "type": "string"
        },
        {
          "internalType": "string",
          "name": "responsible_manager",
          "type": "string"
        },
        {
          "internalType": "string",
          "name": "file_type",
          "type": "string"
        },
        {
          "internalType": "string",
          "name": "file_description",
          "type": "string"
        }
      ],
      "name": "sendTrans",
      "outputs": [],
      "stateMutability": "payable",
      "type": "function",
      "payable": true
    },
    {
      "inputs": [],
      "name": "getAllTransactions",
      "outputs": [
        {
          "components": [
            {
              "internalType": "string",
              "name": "category",
              "type": "string"
            },
            {
              "internalType": "string",
              "name": "name",
              "type": "string"
            },
            {
              "internalType": "uint256",
              "name": "timestamp",
              "type": "uint256"
            },
            {
              "internalType": "string",
              "name": "ipfs_hash",
              "type": "string"
            },
            {
              "internalType": "string",
              "name": "registrant",
              "type": "string"
            },
            {
              "internalType": "string",
              "name": "responsible_manager",
              "type": "string"
            },
            {
              "internalType": "string",
              "name": "file_type",
              "type": "string"
            },
            {
              "internalType": "string",
              "name": "file_description",
              "type": "string"
            }
          ],
          "internalType": "struct Transaction.transaction",
          "name": "",
          "type": "tuple"
        }
      ],
      "stateMutability": "view",
      "type": "function",
      "constant": true
    },
    {
      "inputs": [],
      "name": "cntTransactions",
      "outputs": [
        {
          "internalType": "uint16",
          "name": "",
          "type": "uint16"
        }
      ],
      "stateMutability": "view",
      "type": "function",
      "constant": true
    }
  ],
  "bytecode": "0x608060405234801561001057600080fd5b50610eef806100206000396000f3fe6080604052600436106100345760003560e01c806327506f5314610039578063998e19aa14610064578063daec9ea31461008f575b600080fd5b34801561004557600080fd5b5061004e6100ab565b60405161005b91906109ef565b60405180910390f35b34801561007057600080fd5b5061007961050a565b6040516100869190610a2e565b60405180910390f35b6100a960048036038101906100a49190610b92565b61055f565b005b6100b361077b565b6000803373ffffffffffffffffffffffffffffffffffffffff1673ffffffffffffffffffffffffffffffffffffffff1681526020019081526020016000206040518061010001604052908160008201805461010d90610d27565b80601f016020809104026020016040519081016040528092919081815260200182805461013990610d27565b80156101865780601f1061015b57610100808354040283529160200191610186565b820191906000526020600020905b81548152906001019060200180831161016957829003601f168201915b5050505050815260200160018201805461019f90610d27565b80601f01602080910402602001604051908101604052809291908181526020018280546101cb90610d27565b80156102185780601f106101ed57610100808354040283529160200191610218565b820191906000526020600020905b8154815290600101906020018083116101fb57829003601f168201915b505050505081526020016002820154815260200160038201805461023b90610d27565b80601f016020809104026020016040519081016040528092919081815260200182805461026790610d27565b80156102b45780601f10610289576101008083540402835291602001916102b4565b820191906000526020600020905b81548152906001019060200180831161029757829003601f168201915b505050505081526020016004820180546102cd90610d27565b80601f01602080910402602001604051908101604052809291908181526020018280546102f990610d27565b80156103465780601f1061031b57610100808354040283529160200191610346565b820191906000526020600020905b81548152906001019060200180831161032957829003601f168201915b5050505050815260200160058201805461035f90610d27565b80601f016020809104026020016040519081016040528092919081815260200182805461038b90610d27565b80156103d85780601f106103ad576101008083540402835291602001916103d8565b820191906000526020600020905b8154815290600101906020018083116103bb57829003601f168201915b505050505081526020016006820180546103f190610d27565b80601f016020809104026020016040519081016040528092919081815260200182805461041d90610d27565b801561046a5780601f1061043f5761010080835404028352916020019161046a565b820191906000526020600020905b81548152906001019060200180831161044d57829003601f168201915b5050505050815260200160078201805461048390610d27565b80601f01602080910402602001604051908101604052809291908181526020018280546104af90610d27565b80156104fc5780601f106104d1576101008083540402835291602001916104fc565b820191906000526020600020905b8154815290600101906020018083116104df57829003601f168201915b505050505081525050905090565b6000600160003373ffffffffffffffffffffffffffffffffffffffff1673ffffffffffffffffffffffffffffffffffffffff16815260200190815260200160002060009054906101000a900461ffff16905090565b6000604051806101000160405280898152602001888152602001428152602001878152602001868152602001858152602001848152602001838152509050600160003373ffffffffffffffffffffffffffffffffffffffff1673ffffffffffffffffffffffffffffffffffffffff168152602001908152602001600020600081819054906101000a900461ffff16809291906105fa90610d87565b91906101000a81548161ffff021916908361ffff16021790555050806000803373ffffffffffffffffffffffffffffffffffffffff1673ffffffffffffffffffffffffffffffffffffffff16815260200190815260200160002060008201518160000190805190602001906106709291906107c0565b50602082015181600101908051906020019061068d9291906107c0565b506040820151816002015560608201518160030190805190602001906106b49291906107c0565b5060808201518160040190805190602001906106d19291906107c0565b5060a08201518160050190805190602001906106ee9291906107c0565b5060c082015181600601908051906020019061070b9291906107c0565b5060e08201518160070190805190602001906107289291906107c0565b509050507f6c7f36df7ee3827c3cdbf70417c8039de964aa5405c0e030201d085224d01f3c8888428989898989604051610769989796959493929190610e0a565b60405180910390a15050505050505050565b60405180610100016040528060608152602001606081526020016000815260200160608152602001606081526020016060815260200160608152602001606081525090565b8280546107cc90610d27565b90600052602060002090601f0160209004810192826107ee5760008555610835565b82601f1061080757805160ff1916838001178555610835565b82800160010185558215610835579182015b82811115610834578251825591602001919060010190610819565b5b5090506108429190610846565b5090565b5b8082111561085f576000816000905550600101610847565b5090565b600081519050919050565b600082825260208201905092915050565b60005b8381101561089d578082015181840152602081019050610882565b838111156108ac576000848401525b50505050565b6000601f19601f8301169050919050565b60006108ce82610863565b6108d8818561086e565b93506108e881856020860161087f565b6108f1816108b2565b840191505092915050565b6000819050919050565b61090f816108fc565b82525050565b600061010083016000830151848203600086015261093382826108c3565b9150506020830151848203602086015261094d82826108c3565b91505060408301516109626040860182610906565b506060830151848203606086015261097a82826108c3565b9150506080830151848203608086015261099482826108c3565b91505060a083015184820360a08601526109ae82826108c3565b91505060c083015184820360c08601526109c882826108c3565b91505060e083015184820360e08601526109e282826108c3565b9150508091505092915050565b60006020820190508181036000830152610a098184610915565b905092915050565b600061ffff82169050919050565b610a2881610a11565b82525050565b6000602082019050610a436000830184610a1f565b92915050565b6000604051905090565b600080fd5b600080fd5b600080fd5b600080fd5b7f4e487b7100000000000000000000000000000000000000000000000000000000600052604160045260246000fd5b610a9f826108b2565b810181811067ffffffffffffffff82111715610abe57610abd610a67565b5b80604052505050565b6000610ad1610a49565b9050610add8282610a96565b919050565b600067ffffffffffffffff821115610afd57610afc610a67565b5b610b06826108b2565b9050602081019050919050565b82818337600083830152505050565b6000610b35610b3084610ae2565b610ac7565b905082815260208101848484011115610b5157610b50610a62565b5b610b5c848285610b13565b509392505050565b600082601f830112610b7957610b78610a5d565b5b8135610b89848260208601610b22565b91505092915050565b600080600080600080600060e0888a031215610bb157610bb0610a53565b5b600088013567ffffffffffffffff811115610bcf57610bce610a58565b5b610bdb8a828b01610b64565b975050602088013567ffffffffffffffff811115610bfc57610bfb610a58565b5b610c088a828b01610b64565b965050604088013567ffffffffffffffff811115610c2957610c28610a58565b5b610c358a828b01610b64565b955050606088013567ffffffffffffffff811115610c5657610c55610a58565b5b610c628a828b01610b64565b945050608088013567ffffffffffffffff811115610c8357610c82610a58565b5b610c8f8a828b01610b64565b93505060a088013567ffffffffffffffff811115610cb057610caf610a58565b5b610cbc8a828b01610b64565b92505060c088013567ffffffffffffffff811115610cdd57610cdc610a58565b5b610ce98a828b01610b64565b91505092959891949750929550565b7f4e487b7100000000000000000000000000000000000000000000000000000000600052602260045260246000fd5b60006002820490506001821680610d3f57607f821691505b602082108103610d5257610d51610cf8565b5b50919050565b7f4e487b7100000000000000000000000000000000000000000000000000000000600052601160045260246000fd5b6000610d9282610a11565b915061ffff8203610da657610da5610d58565b5b600182019050919050565b600082825260208201905092915050565b6000610dcd82610863565b610dd78185610db1565b9350610de781856020860161087f565b610df0816108b2565b840191505092915050565b610e04816108fc565b82525050565b6000610100820190508181036000830152610e25818b610dc2565b90508181036020830152610e39818a610dc2565b9050610e486040830189610dfb565b8181036060830152610e5a8188610dc2565b90508181036080830152610e6e8187610dc2565b905081810360a0830152610e828186610dc2565b905081810360c0830152610e968185610dc2565b905081810360e0830152610eaa8184610dc2565b9050999850505050505050505056fea2646970667358221220714d1ad9582da970cf0851bbb9e37f9f9f671e96d5caf4616ea12d4216545ea964736f6c634300080e0033",
  "immutableReferences": {},
  "source": "// SPDX-License-Identifier: MIT\r\npragma solidity ^0.8.14;\r\n\r\ncontract Transaction {\r\n    struct transaction {\r\n        string category;\r\n        string name;\r\n        uint256 timestamp;\r\n        string ipfs_hash;\r\n        string registrant;\r\n        string responsible_manager;\r\n        string file_type;\r\n        string file_description;\r\n    }\r\n\r\n    event handleTransaction(string category, string name, uint256 time, string ipfs_hash, string registrant, string responsible_manager, string file_type, string file_description);\r\n\r\n    //saves all the transactions of the account\r\n    mapping (address=>transaction) transactionIndex;\r\n    //count the total number of transaction of the account\r\n    mapping (address=>uint16) transaction_cnt;\r\n\r\n    //send the transaction\r\n    function sendTrans(string memory category, string memory name, string memory ipfs_hash, string memory registrant, string memory responsible_manager, string memory file_type, string memory file_description) public payable{\r\n        // cate = \" \" + cate;\r\n        //inserts transaction information\r\n        transaction memory newTransaction = transaction(category, name, block.timestamp, ipfs_hash, registrant, responsible_manager, file_type, file_description);\r\n        //count the number of transactions sent\r\n        transaction_cnt[msg.sender]++;\r\n        //save all the transactions\r\n        transactionIndex[msg.sender] = newTransaction;\r\n\r\n        emit handleTransaction(category, name, block.timestamp, ipfs_hash, registrant, responsible_manager, file_type, file_description);\r\n    }\r\n\r\n    //view all the transactions of the user\r\n    function getAllTransactions() view external returns(transaction memory){\r\n        return transactionIndex[msg.sender];\r\n    }\r\n\r\n    function cntTransactions() view external returns(uint16){\r\n        return transaction_cnt[msg.sender];\r\n    }\r\n}",
  "sourcePath": "D:\\BlockchainSafetyManagement\\truffle\\contracts\\Transaction.sol",
  "compiler": {
    "name": "solc",
    "version": "0.8.14+commit.80d49f37.Emscripten.clang"
  },
  "schemaVersion": "3.4.8",
  "updatedAt": "2022-07-20T02:16:59.447Z",
  "networkType": "ethereum",
  "devdoc": {
    "kind": "dev",
    "methods": {},
    "version": 1
  },
  "userdoc": {
    "kind": "user",
    "methods": {},
    "version": 1
  }
}